{"contracts/ CreditScoring.sol":{"CreditScoring":{"abi":[{"inputs":[{"internalType":"address","name":"_debtToIncomeVerifier","type":"address"},{"internalType":"address","name":"_transactionHistoryVerifier","type":"address"},{"internalType":"address","name":"_walletAgeVerifier","type":"address"},{"internalType":"address","name":"_walletBalanceVerifier","type":"address"}],"stateMutability":"nonpayable","type":"constructor"},{"anonymous":false,"inputs":[{"indexed":true,"internalType":"address","name":"user","type":"address"},{"indexed":false,"internalType":"uint256","name":"creditScore","type":"uint256"}],"name":"CreditScoreCalculated","type":"event"},{"inputs":[],"name":"debtToIncomeVerifier","outputs":[{"internalType":"contract IVerifier","name":"","type":"address"}],"stateMutability":"view","type":"function"},{"inputs":[],"name":"transactionHistoryVerifier","outputs":[{"internalType":"contract IVerifier","name":"","type":"address"}],"stateMutability":"view","type":"function"},{"inputs":[{"internalType":"uint256[2]","name":"aDebtToIncome","type":"uint256[2]"},{"internalType":"uint256[2][2]","name":"bDebtToIncome","type":"uint256[2][2]"},{"internalType":"uint256[2]","name":"cDebtToIncome","type":"uint256[2]"},{"internalType":"uint256[1]","name":"publicSignalsDebtToIncome","type":"uint256[1]"},{"internalType":"uint256[2]","name":"aTransactionHistory","type":"uint256[2]"},{"internalType":"uint256[2][2]","name":"bTransactionHistory","type":"uint256[2][2]"},{"internalType":"uint256[2]","name":"cTransactionHistory","type":"uint256[2]"},{"internalType":"uint256[1]","name":"publicSignalsTransactionHistory","type":"uint256[1]"},{"internalType":"uint256[2]","name":"aWalletAge","type":"uint256[2]"},{"internalType":"uint256[2][2]","name":"bWalletAge","type":"uint256[2][2]"},{"internalType":"uint256[2]","name":"cWalletAge","type":"uint256[2]"},{"internalType":"uint256[1]","name":"publicSignalsWalletAge","type":"uint256[1]"},{"internalType":"uint256[2]","name":"aWalletBalance","type":"uint256[2]"},{"internalType":"uint256[2][2]","name":"bWalletBalance","type":"uint256[2][2]"},{"internalType":"uint256[2]","name":"cWalletBalance","type":"uint256[2]"},{"internalType":"uint256[1]","name":"publicSignalsWalletBalance","type":"uint256[1]"}],"name":"verifyAndCalculateCreditScore","outputs":[],"stateMutability":"nonpayable","type":"function"},{"inputs":[],"name":"walletAgeVerifier","outputs":[{"internalType":"contract IVerifier","name":"","type":"address"}],"stateMutability":"view","type":"function"},{"inputs":[],"name":"walletBalanceVerifier","outputs":[{"internalType":"contract IVerifier","name":"","type":"address"}],"stateMutability":"view","type":"function"}],"evm":{"bytecode":{"linkReferences":{},"object":"6080346100b957601f610bd838819003918201601f19168301916001600160401b038311848410176100be578084926080946040528339810103126100b957610047816100d4565b90610054602082016100d4565b61006c6060610065604085016100d4565b93016100d4565b9060018060a01b03928380928160018060a01b03199716876000541617600055168560015416176001551683600254161760025516906003541617600355604051610aef90816100e98239f35b600080fd5b634e487b7160e01b600052604160045260246000fd5b51906001600160a01b03821682036100b95756fe60c080604052600436101561001357600080fd5b60003560e01c908163153fc97c146108f1575080631e84324c146108c8578063206133cf1461089f578063402bc07714610084576369aa79a81461005657600080fd5b3461007f57600036600319011261007f576000546040516001600160a01b039091168152602090f35b600080fd5b3461007f5761048036600319011261007f57366023121561007f576040516100ab81610915565b803660441161007f576004905b6044821061088f5782366063121561007f57604051906100d782610915565b60c48236821161007f576044905b8282106108755750503660e3121561007f576040519061010482610915565b816101049136831161007f57905b82821061086557505036610123121561007f5761013460405180608052610947565b6080516101249136831161007f57905b82821061085557505036610143121561007f576040519361016485610915565b846101649236841161007f57905b83821061084557505036610183121561007f576040519461019286610915565b856101e49336851161007f57905b84821061082b57505036610203121561007f57604051956101c087610915565b866102249436861161007f57905b85821061081b57505036610243121561007f57604051966101ee88610947565b876102449536871161007f57905b86821061080b57505036610263121561007f576040519261021c84610915565b836102849636881161007f57905b8782106107fb575050366102a3121561007f576040519261024a84610915565b836103049736891161007f57905b8882106107e157505036610323121561007f576040519261027884610915565b8361034498368a1161007f57905b8982106107d157505036610363121561007f57604051996102a68b610947565b8a61036499368b1161007f57905b8a82106107c157505036610383121561007f57604051976102d489610915565b886103a49a368c1161007f57905b8b82106107b1575050366103c3121561007f576040519a6103028c610915565b8b6104249b368d1161007f57905b8c821061079757505036610443121561007f576040519a6103308c610915565b8b90366104641161007f57905b610464821061078757505036610483121561007f576103616040518060a052610947565b60a051366104841161007f57610464905b6104848210610777575050916020916103b29360018060a01b036000541691604051958694859384936343753b4d60e01b85526080519260048601610a0a565b03915afa90811561062457600091610758575b5015610708578a9260209260018060a01b0360015416916103fc604051968795869485946343753b4d60e01b865260048601610a0a565b03915afa908115610624576000916106e9575b501561069457869260209260018060a01b036002541691610446604051968795869485946343753b4d60e01b865260048601610a0a565b03915afa90811561062457600091610675575b5015610630576003546040516343753b4d60e01b815260a051909460209486946001600160a01b03909416938593849361049893919260048601610a0a565b03915afa908115610624576000916105f5575b50156105a5576000916001608051511461059c575b5160011461058a575b51600114610568575b600160a0515114610546575b6101c29081810291818304149015171561053057606461012c91048101809111610530576040519081527feb75f0e126a667b55e87592e35c34b103f77eaa1bf5e2a0ef6fb6c8c26f3c5b460203392a2005b634e487b7160e01b600052601160045260246000fd5b60198101809111156104de57634e487b7160e01b600052601160045260246000fd5b60198101809111156104d257634e487b7160e01b600052601160045260246000fd5b906019810180911161053057906104c9565b601992506104c0565b60405162461bcd60e51b815260206004820152602260248201527f57616c6c65742042616c616e636520766572696669636174696f6e206661696c604482015261195960f21b6064820152608490fd5b610617915060203d60201161061d575b61060f8183610963565b8101906109ca565b836104ab565b503d610605565b6040513d6000823e3d90fd5b60405162461bcd60e51b815260206004820152601e60248201527f57616c6c65742041676520766572696669636174696f6e206661696c656400006044820152606490fd5b61068e915060203d60201161061d5761060f8183610963565b86610459565b60405162461bcd60e51b815260206004820152602760248201527f5472616e73616374696f6e20486973746f727920766572696669636174696f6e6044820152660819985a5b195960ca1b6064820152608490fd5b610702915060203d60201161061d5761060f8183610963565b8961040f565b60405162461bcd60e51b815260206004820152602260248201527f446562742d746f2d496e636f6d6520766572696669636174696f6e206661696c604482015261195960f21b6064820152608490fd5b610771915060203d60201161061d5761060f8183610963565b8c6103c5565b8135815260209182019101610372565b813581526020918201910161033d565b60206040916107a63685610985565b815201910190610310565b81358152602091820191016102e2565b81358152602091820191016102b4565b8135815260209182019101610286565b60206040916107f03685610985565b815201910190610258565b813581526020918201910161022a565b81358152602091820191016101fc565b81358152602091820191016101ce565b602060409161083a3685610985565b8152019101906101a0565b8135815260209182019101610172565b8135815260209182019101610144565b8135815260209182019101610112565b60206040916108843685610985565b8152019101906100e5565b81358152602091820191016100b8565b3461007f57600036600319011261007f576001546040516001600160a01b039091168152602090f35b3461007f57600036600319011261007f576002546040516001600160a01b039091168152602090f35b3461007f57600036600319011261007f576003546001600160a01b03168152602090f35b6040810190811067ffffffffffffffff82111761093157604052565b634e487b7160e01b600052604160045260246000fd5b6020810190811067ffffffffffffffff82111761093157604052565b90601f8019910116810190811067ffffffffffffffff82111761093157604052565b9080601f8301121561007f576040519161099e83610915565b82906040810192831161007f57905b8282106109ba5750505090565b81358152602091820191016109ad565b9081602091031261007f5751801515810361007f5790565b6000915b600283106109f357505050565b6001908251815260208091019201920191906109e6565b9293949094610a1e846101208101976109e2565b60409182850193916000945b600280871015610a75578590855183906000915b838310610a5b575050505060209060019201940195019492610a2a565b815181528994506001929092019160209182019101610a3e565b5050949250946101009350610a8f915060c08301906109e2565b01906000915b60018310610aa257505050565b600190825181526020809101920192019190610a9556fea2646970667358221220c714ce3721bdd053970cea8bcbc55e59cef878a6d3125aaf39a671d61950073164736f6c63430008110033","opcodes":"PUSH1 0x80 CALLVALUE PUSH2 0xB9 JUMPI PUSH1 0x1F PUSH2 0xBD8 CODESIZE DUP2 SWAP1 SUB SWAP2 DUP3 ADD PUSH1 0x1F NOT AND DUP4 ADD SWAP2 PUSH1 0x1 PUSH1 0x1 PUSH1 0x40 SHL SUB DUP4 GT DUP5 DUP5 LT OR PUSH2 0xBE JUMPI DUP1 DUP5 SWAP3 PUSH1 0x80 SWAP5 PUSH1 0x40 MSTORE DUP4 CODECOPY DUP2 ADD SUB SLT PUSH2 0xB9 JUMPI PUSH2 0x47 DUP2 PUSH2 0xD4 JUMP JUMPDEST SWAP1 PUSH2 0x54 PUSH1 0x20 DUP3 ADD PUSH2 0xD4 JUMP JUMPDEST PUSH2 0x6C PUSH1 0x60 PUSH2 0x65 PUSH1 0x40 DUP6 ADD PUSH2 0xD4 JUMP JUMPDEST SWAP4 ADD PUSH2 0xD4 JUMP JUMPDEST SWAP1 PUSH1 0x1 DUP1 PUSH1 0xA0 SHL SUB SWAP3 DUP4 DUP1 SWAP3 DUP2 PUSH1 0x1 DUP1 PUSH1 0xA0 SHL SUB NOT SWAP8 AND DUP8 PUSH1 0x0 SLOAD AND OR PUSH1 0x0 SSTORE AND DUP6 PUSH1 0x1 SLOAD AND OR PUSH1 0x1 SSTORE AND DUP4 PUSH1 0x2 SLOAD AND OR PUSH1 0x2 SSTORE AND SWAP1 PUSH1 0x3 SLOAD AND OR PUSH1 0x3 SSTORE PUSH1 0x40 MLOAD PUSH2 0xAEF SWAP1 DUP2 PUSH2 0xE9 DUP3 CODECOPY RETURN JUMPDEST PUSH1 0x0 DUP1 REVERT JUMPDEST PUSH4 0x4E487B71 PUSH1 0xE0 SHL PUSH1 0x0 MSTORE PUSH1 0x41 PUSH1 0x4 MSTORE PUSH1 0x24 PUSH1 0x0 REVERT JUMPDEST MLOAD SWAP1 PUSH1 0x1 PUSH1 0x1 PUSH1 0xA0 SHL SUB DUP3 AND DUP3 SUB PUSH2 0xB9 JUMPI JUMP INVALID PUSH1 0xC0 DUP1 PUSH1 0x40 MSTORE PUSH1 0x4 CALLDATASIZE LT ISZERO PUSH2 0x13 JUMPI PUSH1 0x0 DUP1 REVERT JUMPDEST PUSH1 0x0 CALLDATALOAD PUSH1 0xE0 SHR SWAP1 DUP2 PUSH4 0x153FC97C EQ PUSH2 0x8F1 JUMPI POP DUP1 PUSH4 0x1E84324C EQ PUSH2 0x8C8 JUMPI DUP1 PUSH4 0x206133CF EQ PUSH2 0x89F JUMPI DUP1 PUSH4 0x402BC077 EQ PUSH2 0x84 JUMPI PUSH4 0x69AA79A8 EQ PUSH2 0x56 JUMPI PUSH1 0x0 DUP1 REVERT JUMPDEST CALLVALUE PUSH2 0x7F JUMPI PUSH1 0x0 CALLDATASIZE PUSH1 0x3 NOT ADD SLT PUSH2 0x7F JUMPI PUSH1 0x0 SLOAD PUSH1 0x40 MLOAD PUSH1 0x1 PUSH1 0x1 PUSH1 0xA0 SHL SUB SWAP1 SWAP2 AND DUP2 MSTORE PUSH1 0x20 SWAP1 RETURN JUMPDEST PUSH1 0x0 DUP1 REVERT JUMPDEST CALLVALUE PUSH2 0x7F JUMPI PUSH2 0x480 CALLDATASIZE PUSH1 0x3 NOT ADD SLT PUSH2 0x7F JUMPI CALLDATASIZE PUSH1 0x23 SLT ISZERO PUSH2 0x7F JUMPI PUSH1 0x40 MLOAD PUSH2 0xAB DUP2 PUSH2 0x915 JUMP JUMPDEST DUP1 CALLDATASIZE PUSH1 0x44 GT PUSH2 0x7F JUMPI PUSH1 0x4 SWAP1 JUMPDEST PUSH1 0x44 DUP3 LT PUSH2 0x88F JUMPI DUP3 CALLDATASIZE PUSH1 0x63 SLT ISZERO PUSH2 0x7F JUMPI PUSH1 0x40 MLOAD SWAP1 PUSH2 0xD7 DUP3 PUSH2 0x915 JUMP JUMPDEST PUSH1 0xC4 DUP3 CALLDATASIZE DUP3 GT PUSH2 0x7F JUMPI PUSH1 0x44 SWAP1 JUMPDEST DUP3 DUP3 LT PUSH2 0x875 JUMPI POP POP CALLDATASIZE PUSH1 0xE3 SLT ISZERO PUSH2 0x7F JUMPI PUSH1 0x40 MLOAD SWAP1 PUSH2 0x104 DUP3 PUSH2 0x915 JUMP JUMPDEST DUP2 PUSH2 0x104 SWAP2 CALLDATASIZE DUP4 GT PUSH2 0x7F JUMPI SWAP1 JUMPDEST DUP3 DUP3 LT PUSH2 0x865 JUMPI POP POP CALLDATASIZE PUSH2 0x123 SLT ISZERO PUSH2 0x7F JUMPI PUSH2 0x134 PUSH1 0x40 MLOAD DUP1 PUSH1 0x80 MSTORE PUSH2 0x947 JUMP JUMPDEST PUSH1 0x80 MLOAD PUSH2 0x124 SWAP2 CALLDATASIZE DUP4 GT PUSH2 0x7F JUMPI SWAP1 JUMPDEST DUP3 DUP3 LT PUSH2 0x855 JUMPI POP POP CALLDATASIZE PUSH2 0x143 SLT ISZERO PUSH2 0x7F JUMPI PUSH1 0x40 MLOAD SWAP4 PUSH2 0x164 DUP6 PUSH2 0x915 JUMP JUMPDEST DUP5 PUSH2 0x164 SWAP3 CALLDATASIZE DUP5 GT PUSH2 0x7F JUMPI SWAP1 JUMPDEST DUP4 DUP3 LT PUSH2 0x845 JUMPI POP POP CALLDATASIZE PUSH2 0x183 SLT ISZERO PUSH2 0x7F JUMPI PUSH1 0x40 MLOAD SWAP5 PUSH2 0x192 DUP7 PUSH2 0x915 JUMP JUMPDEST DUP6 PUSH2 0x1E4 SWAP4 CALLDATASIZE DUP6 GT PUSH2 0x7F JUMPI SWAP1 JUMPDEST DUP5 DUP3 LT PUSH2 0x82B JUMPI POP POP CALLDATASIZE PUSH2 0x203 SLT ISZERO PUSH2 0x7F JUMPI PUSH1 0x40 MLOAD SWAP6 PUSH2 0x1C0 DUP8 PUSH2 0x915 JUMP JUMPDEST DUP7 PUSH2 0x224 SWAP5 CALLDATASIZE DUP7 GT PUSH2 0x7F JUMPI SWAP1 JUMPDEST DUP6 DUP3 LT PUSH2 0x81B JUMPI POP POP CALLDATASIZE PUSH2 0x243 SLT ISZERO PUSH2 0x7F JUMPI PUSH1 0x40 MLOAD SWAP7 PUSH2 0x1EE DUP9 PUSH2 0x947 JUMP JUMPDEST DUP8 PUSH2 0x244 SWAP6 CALLDATASIZE DUP8 GT PUSH2 0x7F JUMPI SWAP1 JUMPDEST DUP7 DUP3 LT PUSH2 0x80B JUMPI POP POP CALLDATASIZE PUSH2 0x263 SLT ISZERO PUSH2 0x7F JUMPI PUSH1 0x40 MLOAD SWAP3 PUSH2 0x21C DUP5 PUSH2 0x915 JUMP JUMPDEST DUP4 PUSH2 0x284 SWAP7 CALLDATASIZE DUP9 GT PUSH2 0x7F JUMPI SWAP1 JUMPDEST DUP8 DUP3 LT PUSH2 0x7FB JUMPI POP POP CALLDATASIZE PUSH2 0x2A3 SLT ISZERO PUSH2 0x7F JUMPI PUSH1 0x40 MLOAD SWAP3 PUSH2 0x24A DUP5 PUSH2 0x915 JUMP JUMPDEST DUP4 PUSH2 0x304 SWAP8 CALLDATASIZE DUP10 GT PUSH2 0x7F JUMPI SWAP1 JUMPDEST DUP9 DUP3 LT PUSH2 0x7E1 JUMPI POP POP CALLDATASIZE PUSH2 0x323 SLT ISZERO PUSH2 0x7F JUMPI PUSH1 0x40 MLOAD SWAP3 PUSH2 0x278 DUP5 PUSH2 0x915 JUMP JUMPDEST DUP4 PUSH2 0x344 SWAP9 CALLDATASIZE DUP11 GT PUSH2 0x7F JUMPI SWAP1 JUMPDEST DUP10 DUP3 LT PUSH2 0x7D1 JUMPI POP POP CALLDATASIZE PUSH2 0x363 SLT ISZERO PUSH2 0x7F JUMPI PUSH1 0x40 MLOAD SWAP10 PUSH2 0x2A6 DUP12 PUSH2 0x947 JUMP JUMPDEST DUP11 PUSH2 0x364 SWAP10 CALLDATASIZE DUP12 GT PUSH2 0x7F JUMPI SWAP1 JUMPDEST DUP11 DUP3 LT PUSH2 0x7C1 JUMPI POP POP CALLDATASIZE PUSH2 0x383 SLT ISZERO PUSH2 0x7F JUMPI PUSH1 0x40 MLOAD SWAP8 PUSH2 0x2D4 DUP10 PUSH2 0x915 JUMP JUMPDEST DUP9 PUSH2 0x3A4 SWAP11 CALLDATASIZE DUP13 GT PUSH2 0x7F JUMPI SWAP1 JUMPDEST DUP12 DUP3 LT PUSH2 0x7B1 JUMPI POP POP CALLDATASIZE PUSH2 0x3C3 SLT ISZERO PUSH2 0x7F JUMPI PUSH1 0x40 MLOAD SWAP11 PUSH2 0x302 DUP13 PUSH2 0x915 JUMP JUMPDEST DUP12 PUSH2 0x424 SWAP12 CALLDATASIZE DUP14 GT PUSH2 0x7F JUMPI SWAP1 JUMPDEST DUP13 DUP3 LT PUSH2 0x797 JUMPI POP POP CALLDATASIZE PUSH2 0x443 SLT ISZERO PUSH2 0x7F JUMPI PUSH1 0x40 MLOAD SWAP11 PUSH2 0x330 DUP13 PUSH2 0x915 JUMP JUMPDEST DUP12 SWAP1 CALLDATASIZE PUSH2 0x464 GT PUSH2 0x7F JUMPI SWAP1 JUMPDEST PUSH2 0x464 DUP3 LT PUSH2 0x787 JUMPI POP POP CALLDATASIZE PUSH2 0x483 SLT ISZERO PUSH2 0x7F JUMPI PUSH2 0x361 PUSH1 0x40 MLOAD DUP1 PUSH1 0xA0 MSTORE PUSH2 0x947 JUMP JUMPDEST PUSH1 0xA0 MLOAD CALLDATASIZE PUSH2 0x484 GT PUSH2 0x7F JUMPI PUSH2 0x464 SWAP1 JUMPDEST PUSH2 0x484 DUP3 LT PUSH2 0x777 JUMPI POP POP SWAP2 PUSH1 0x20 SWAP2 PUSH2 0x3B2 SWAP4 PUSH1 0x1 DUP1 PUSH1 0xA0 SHL SUB PUSH1 0x0 SLOAD AND SWAP2 PUSH1 0x40 MLOAD SWAP6 DUP7 SWAP5 DUP6 SWAP4 DUP5 SWAP4 PUSH4 0x43753B4D PUSH1 0xE0 SHL DUP6 MSTORE PUSH1 0x80 MLOAD SWAP3 PUSH1 0x4 DUP7 ADD PUSH2 0xA0A JUMP JUMPDEST SUB SWAP2 GAS STATICCALL SWAP1 DUP2 ISZERO PUSH2 0x624 JUMPI PUSH1 0x0 SWAP2 PUSH2 0x758 JUMPI JUMPDEST POP ISZERO PUSH2 0x708 JUMPI DUP11 SWAP3 PUSH1 0x20 SWAP3 PUSH1 0x1 DUP1 PUSH1 0xA0 SHL SUB PUSH1 0x1 SLOAD AND SWAP2 PUSH2 0x3FC PUSH1 0x40 MLOAD SWAP7 DUP8 SWAP6 DUP7 SWAP5 DUP6 SWAP5 PUSH4 0x43753B4D PUSH1 0xE0 SHL DUP7 MSTORE PUSH1 0x4 DUP7 ADD PUSH2 0xA0A JUMP JUMPDEST SUB SWAP2 GAS STATICCALL SWAP1 DUP2 ISZERO PUSH2 0x624 JUMPI PUSH1 0x0 SWAP2 PUSH2 0x6E9 JUMPI JUMPDEST POP ISZERO PUSH2 0x694 JUMPI DUP7 SWAP3 PUSH1 0x20 SWAP3 PUSH1 0x1 DUP1 PUSH1 0xA0 SHL SUB PUSH1 0x2 SLOAD AND SWAP2 PUSH2 0x446 PUSH1 0x40 MLOAD SWAP7 DUP8 SWAP6 DUP7 SWAP5 DUP6 SWAP5 PUSH4 0x43753B4D PUSH1 0xE0 SHL DUP7 MSTORE PUSH1 0x4 DUP7 ADD PUSH2 0xA0A JUMP JUMPDEST SUB SWAP2 GAS STATICCALL SWAP1 DUP2 ISZERO PUSH2 0x624 JUMPI PUSH1 0x0 SWAP2 PUSH2 0x675 JUMPI JUMPDEST POP ISZERO PUSH2 0x630 JUMPI PUSH1 0x3 SLOAD PUSH1 0x40 MLOAD PUSH4 0x43753B4D PUSH1 0xE0 SHL DUP2 MSTORE PUSH1 0xA0 MLOAD SWAP1 SWAP5 PUSH1 0x20 SWAP5 DUP7 SWAP5 PUSH1 0x1 PUSH1 0x1 PUSH1 0xA0 SHL SUB SWAP1 SWAP5 AND SWAP4 DUP6 SWAP4 DUP5 SWAP4 PUSH2 0x498 SWAP4 SWAP2 SWAP3 PUSH1 0x4 DUP7 ADD PUSH2 0xA0A JUMP JUMPDEST SUB SWAP2 GAS STATICCALL SWAP1 DUP2 ISZERO PUSH2 0x624 JUMPI PUSH1 0x0 SWAP2 PUSH2 0x5F5 JUMPI JUMPDEST POP ISZERO PUSH2 0x5A5 JUMPI PUSH1 0x0 SWAP2 PUSH1 0x1 PUSH1 0x80 MLOAD MLOAD EQ PUSH2 0x59C JUMPI JUMPDEST MLOAD PUSH1 0x1 EQ PUSH2 0x58A JUMPI JUMPDEST MLOAD PUSH1 0x1 EQ PUSH2 0x568 JUMPI JUMPDEST PUSH1 0x1 PUSH1 0xA0 MLOAD MLOAD EQ PUSH2 0x546 JUMPI JUMPDEST PUSH2 0x1C2 SWAP1 DUP2 DUP2 MUL SWAP2 DUP2 DUP4 DIV EQ SWAP1 ISZERO OR ISZERO PUSH2 0x530 JUMPI PUSH1 0x64 PUSH2 0x12C SWAP2 DIV DUP2 ADD DUP1 SWAP2 GT PUSH2 0x530 JUMPI PUSH1 0x40 MLOAD SWAP1 DUP2 MSTORE PUSH32 0xEB75F0E126A667B55E87592E35C34B103F77EAA1BF5E2A0EF6FB6C8C26F3C5B4 PUSH1 0x20 CALLER SWAP3 LOG2 STOP JUMPDEST PUSH4 0x4E487B71 PUSH1 0xE0 SHL PUSH1 0x0 MSTORE PUSH1 0x11 PUSH1 0x4 MSTORE PUSH1 0x24 PUSH1 0x0 REVERT JUMPDEST PUSH1 0x19 DUP2 ADD DUP1 SWAP2 GT ISZERO PUSH2 0x4DE JUMPI PUSH4 0x4E487B71 PUSH1 0xE0 SHL PUSH1 0x0 MSTORE PUSH1 0x11 PUSH1 0x4 MSTORE PUSH1 0x24 PUSH1 0x0 REVERT JUMPDEST PUSH1 0x19 DUP2 ADD DUP1 SWAP2 GT ISZERO PUSH2 0x4D2 JUMPI PUSH4 0x4E487B71 PUSH1 0xE0 SHL PUSH1 0x0 MSTORE PUSH1 0x11 PUSH1 0x4 MSTORE PUSH1 0x24 PUSH1 0x0 REVERT JUMPDEST SWAP1 PUSH1 0x19 DUP2 ADD DUP1 SWAP2 GT PUSH2 0x530 JUMPI SWAP1 PUSH2 0x4C9 JUMP JUMPDEST PUSH1 0x19 SWAP3 POP PUSH2 0x4C0 JUMP JUMPDEST PUSH1 0x40 MLOAD PUSH3 0x461BCD PUSH1 0xE5 SHL DUP2 MSTORE PUSH1 0x20 PUSH1 0x4 DUP3 ADD MSTORE PUSH1 0x22 PUSH1 0x24 DUP3 ADD MSTORE PUSH32 0x57616C6C65742042616C616E636520766572696669636174696F6E206661696C PUSH1 0x44 DUP3 ADD MSTORE PUSH2 0x1959 PUSH1 0xF2 SHL PUSH1 0x64 DUP3 ADD MSTORE PUSH1 0x84 SWAP1 REVERT JUMPDEST PUSH2 0x617 SWAP2 POP PUSH1 0x20 RETURNDATASIZE PUSH1 0x20 GT PUSH2 0x61D JUMPI JUMPDEST PUSH2 0x60F DUP2 DUP4 PUSH2 0x963 JUMP JUMPDEST DUP2 ADD SWAP1 PUSH2 0x9CA JUMP JUMPDEST DUP4 PUSH2 0x4AB JUMP JUMPDEST POP RETURNDATASIZE PUSH2 0x605 JUMP JUMPDEST PUSH1 0x40 MLOAD RETURNDATASIZE PUSH1 0x0 DUP3 RETURNDATACOPY RETURNDATASIZE SWAP1 REVERT JUMPDEST PUSH1 0x40 MLOAD PUSH3 0x461BCD PUSH1 0xE5 SHL DUP2 MSTORE PUSH1 0x20 PUSH1 0x4 DUP3 ADD MSTORE PUSH1 0x1E PUSH1 0x24 DUP3 ADD MSTORE PUSH32 0x57616C6C65742041676520766572696669636174696F6E206661696C65640000 PUSH1 0x44 DUP3 ADD MSTORE PUSH1 0x64 SWAP1 REVERT JUMPDEST PUSH2 0x68E SWAP2 POP PUSH1 0x20 RETURNDATASIZE PUSH1 0x20 GT PUSH2 0x61D JUMPI PUSH2 0x60F DUP2 DUP4 PUSH2 0x963 JUMP JUMPDEST DUP7 PUSH2 0x459 JUMP JUMPDEST PUSH1 0x40 MLOAD PUSH3 0x461BCD PUSH1 0xE5 SHL DUP2 MSTORE PUSH1 0x20 PUSH1 0x4 DUP3 ADD MSTORE PUSH1 0x27 PUSH1 0x24 DUP3 ADD MSTORE PUSH32 0x5472616E73616374696F6E20486973746F727920766572696669636174696F6E PUSH1 0x44 DUP3 ADD MSTORE PUSH7 0x819985A5B1959 PUSH1 0xCA SHL PUSH1 0x64 DUP3 ADD MSTORE PUSH1 0x84 SWAP1 REVERT JUMPDEST PUSH2 0x702 SWAP2 POP PUSH1 0x20 RETURNDATASIZE PUSH1 0x20 GT PUSH2 0x61D JUMPI PUSH2 0x60F DUP2 DUP4 PUSH2 0x963 JUMP JUMPDEST DUP10 PUSH2 0x40F JUMP JUMPDEST PUSH1 0x40 MLOAD PUSH3 0x461BCD PUSH1 0xE5 SHL DUP2 MSTORE PUSH1 0x20 PUSH1 0x4 DUP3 ADD MSTORE PUSH1 0x22 PUSH1 0x24 DUP3 ADD MSTORE PUSH32 0x446562742D746F2D496E636F6D6520766572696669636174696F6E206661696C PUSH1 0x44 DUP3 ADD MSTORE PUSH2 0x1959 PUSH1 0xF2 SHL PUSH1 0x64 DUP3 ADD MSTORE PUSH1 0x84 SWAP1 REVERT JUMPDEST PUSH2 0x771 SWAP2 POP PUSH1 0x20 RETURNDATASIZE PUSH1 0x20 GT PUSH2 0x61D JUMPI PUSH2 0x60F DUP2 DUP4 PUSH2 0x963 JUMP JUMPDEST DUP13 PUSH2 0x3C5 JUMP JUMPDEST DUP2 CALLDATALOAD DUP2 MSTORE PUSH1 0x20 SWAP2 DUP3 ADD SWAP2 ADD PUSH2 0x372 JUMP JUMPDEST DUP2 CALLDATALOAD DUP2 MSTORE PUSH1 0x20 SWAP2 DUP3 ADD SWAP2 ADD PUSH2 0x33D JUMP JUMPDEST PUSH1 0x20 PUSH1 0x40 SWAP2 PUSH2 0x7A6 CALLDATASIZE DUP6 PUSH2 0x985 JUMP JUMPDEST DUP2 MSTORE ADD SWAP2 ADD SWAP1 PUSH2 0x310 JUMP JUMPDEST DUP2 CALLDATALOAD DUP2 MSTORE PUSH1 0x20 SWAP2 DUP3 ADD SWAP2 ADD PUSH2 0x2E2 JUMP JUMPDEST DUP2 CALLDATALOAD DUP2 MSTORE PUSH1 0x20 SWAP2 DUP3 ADD SWAP2 ADD PUSH2 0x2B4 JUMP JUMPDEST DUP2 CALLDATALOAD DUP2 MSTORE PUSH1 0x20 SWAP2 DUP3 ADD SWAP2 ADD PUSH2 0x286 JUMP JUMPDEST PUSH1 0x20 PUSH1 0x40 SWAP2 PUSH2 0x7F0 CALLDATASIZE DUP6 PUSH2 0x985 JUMP JUMPDEST DUP2 MSTORE ADD SWAP2 ADD SWAP1 PUSH2 0x258 JUMP JUMPDEST DUP2 CALLDATALOAD DUP2 MSTORE PUSH1 0x20 SWAP2 DUP3 ADD SWAP2 ADD PUSH2 0x22A JUMP JUMPDEST DUP2 CALLDATALOAD DUP2 MSTORE PUSH1 0x20 SWAP2 DUP3 ADD SWAP2 ADD PUSH2 0x1FC JUMP JUMPDEST DUP2 CALLDATALOAD DUP2 MSTORE PUSH1 0x20 SWAP2 DUP3 ADD SWAP2 ADD PUSH2 0x1CE JUMP JUMPDEST PUSH1 0x20 PUSH1 0x40 SWAP2 PUSH2 0x83A CALLDATASIZE DUP6 PUSH2 0x985 JUMP JUMPDEST DUP2 MSTORE ADD SWAP2 ADD SWAP1 PUSH2 0x1A0 JUMP JUMPDEST DUP2 CALLDATALOAD DUP2 MSTORE PUSH1 0x20 SWAP2 DUP3 ADD SWAP2 ADD PUSH2 0x172 JUMP JUMPDEST DUP2 CALLDATALOAD DUP2 MSTORE PUSH1 0x20 SWAP2 DUP3 ADD SWAP2 ADD PUSH2 0x144 JUMP JUMPDEST DUP2 CALLDATALOAD DUP2 MSTORE PUSH1 0x20 SWAP2 DUP3 ADD SWAP2 ADD PUSH2 0x112 JUMP JUMPDEST PUSH1 0x20 PUSH1 0x40 SWAP2 PUSH2 0x884 CALLDATASIZE DUP6 PUSH2 0x985 JUMP JUMPDEST DUP2 MSTORE ADD SWAP2 ADD SWAP1 PUSH2 0xE5 JUMP JUMPDEST DUP2 CALLDATALOAD DUP2 MSTORE PUSH1 0x20 SWAP2 DUP3 ADD SWAP2 ADD PUSH2 0xB8 JUMP JUMPDEST CALLVALUE PUSH2 0x7F JUMPI PUSH1 0x0 CALLDATASIZE PUSH1 0x3 NOT ADD SLT PUSH2 0x7F JUMPI PUSH1 0x1 SLOAD PUSH1 0x40 MLOAD PUSH1 0x1 PUSH1 0x1 PUSH1 0xA0 SHL SUB SWAP1 SWAP2 AND DUP2 MSTORE PUSH1 0x20 SWAP1 RETURN JUMPDEST CALLVALUE PUSH2 0x7F JUMPI PUSH1 0x0 CALLDATASIZE PUSH1 0x3 NOT ADD SLT PUSH2 0x7F JUMPI PUSH1 0x2 SLOAD PUSH1 0x40 MLOAD PUSH1 0x1 PUSH1 0x1 PUSH1 0xA0 SHL SUB SWAP1 SWAP2 AND DUP2 MSTORE PUSH1 0x20 SWAP1 RETURN JUMPDEST CALLVALUE PUSH2 0x7F JUMPI PUSH1 0x0 CALLDATASIZE PUSH1 0x3 NOT ADD SLT PUSH2 0x7F JUMPI PUSH1 0x3 SLOAD PUSH1 0x1 PUSH1 0x1 PUSH1 0xA0 SHL SUB AND DUP2 MSTORE PUSH1 0x20 SWAP1 RETURN JUMPDEST PUSH1 0x40 DUP2 ADD SWAP1 DUP2 LT PUSH8 0xFFFFFFFFFFFFFFFF DUP3 GT OR PUSH2 0x931 JUMPI PUSH1 0x40 MSTORE JUMP JUMPDEST PUSH4 0x4E487B71 PUSH1 0xE0 SHL PUSH1 0x0 MSTORE PUSH1 0x41 PUSH1 0x4 MSTORE PUSH1 0x24 PUSH1 0x0 REVERT JUMPDEST PUSH1 0x20 DUP2 ADD SWAP1 DUP2 LT PUSH8 0xFFFFFFFFFFFFFFFF DUP3 GT OR PUSH2 0x931 JUMPI PUSH1 0x40 MSTORE JUMP JUMPDEST SWAP1 PUSH1 0x1F DUP1 NOT SWAP2 ADD AND DUP2 ADD SWAP1 DUP2 LT PUSH8 0xFFFFFFFFFFFFFFFF DUP3 GT OR PUSH2 0x931 JUMPI PUSH1 0x40 MSTORE JUMP JUMPDEST SWAP1 DUP1 PUSH1 0x1F DUP4 ADD SLT ISZERO PUSH2 0x7F JUMPI PUSH1 0x40 MLOAD SWAP2 PUSH2 0x99E DUP4 PUSH2 0x915 JUMP JUMPDEST DUP3 SWAP1 PUSH1 0x40 DUP2 ADD SWAP3 DUP4 GT PUSH2 0x7F JUMPI SWAP1 JUMPDEST DUP3 DUP3 LT PUSH2 0x9BA JUMPI POP POP POP SWAP1 JUMP JUMPDEST DUP2 CALLDATALOAD DUP2 MSTORE PUSH1 0x20 SWAP2 DUP3 ADD SWAP2 ADD PUSH2 0x9AD JUMP JUMPDEST SWAP1 DUP2 PUSH1 0x20 SWAP2 SUB SLT PUSH2 0x7F JUMPI MLOAD DUP1 ISZERO ISZERO DUP2 SUB PUSH2 0x7F JUMPI SWAP1 JUMP JUMPDEST PUSH1 0x0 SWAP2 JUMPDEST PUSH1 0x2 DUP4 LT PUSH2 0x9F3 JUMPI POP POP POP JUMP JUMPDEST PUSH1 0x1 SWAP1 DUP3 MLOAD DUP2 MSTORE PUSH1 0x20 DUP1 SWAP2 ADD SWAP3 ADD SWAP3 ADD SWAP2 SWAP1 PUSH2 0x9E6 JUMP JUMPDEST SWAP3 SWAP4 SWAP5 SWAP1 SWAP5 PUSH2 0xA1E DUP5 PUSH2 0x120 DUP2 ADD SWAP8 PUSH2 0x9E2 JUMP JUMPDEST PUSH1 0x40 SWAP2 DUP3 DUP6 ADD SWAP4 SWAP2 PUSH1 0x0 SWAP5 JUMPDEST PUSH1 0x2 DUP1 DUP8 LT ISZERO PUSH2 0xA75 JUMPI DUP6 SWAP1 DUP6 MLOAD DUP4 SWAP1 PUSH1 0x0 SWAP2 JUMPDEST DUP4 DUP4 LT PUSH2 0xA5B JUMPI POP POP POP POP PUSH1 0x20 SWAP1 PUSH1 0x1 SWAP3 ADD SWAP5 ADD SWAP6 ADD SWAP5 SWAP3 PUSH2 0xA2A JUMP JUMPDEST DUP2 MLOAD DUP2 MSTORE DUP10 SWAP5 POP PUSH1 0x1 SWAP3 SWAP1 SWAP3 ADD SWAP2 PUSH1 0x20 SWAP2 DUP3 ADD SWAP2 ADD PUSH2 0xA3E JUMP JUMPDEST POP POP SWAP5 SWAP3 POP SWAP5 PUSH2 0x100 SWAP4 POP PUSH2 0xA8F SWAP2 POP PUSH1 0xC0 DUP4 ADD SWAP1 PUSH2 0x9E2 JUMP JUMPDEST ADD SWAP1 PUSH1 0x0 SWAP2 JUMPDEST PUSH1 0x1 DUP4 LT PUSH2 0xAA2 JUMPI POP POP POP JUMP JUMPDEST PUSH1 0x1 SWAP1 DUP3 MLOAD DUP2 MSTORE PUSH1 0x20 DUP1 SWAP2 ADD SWAP3 ADD SWAP3 ADD SWAP2 SWAP1 PUSH2 0xA95 JUMP INVALID LOG2 PUSH5 0x6970667358 0x22 SLT KECCAK256 0xC7 EQ 0xCE CALLDATACOPY 0x21 0xBD 0xD0 MSTORE8 SWAP8 0xC 0xEA DUP12 0xCB 0xC5 0x5E MSIZE 0xCE 0xF8 PUSH25 0xA6D3125AAF39A671D61950073164736F6C6343000811003300 "},"methodIdentifiers":{"debtToIncomeVerifier()":"69aa79a8","transactionHistoryVerifier()":"206133cf","verifyAndCalculateCreditScore(uint256[2],uint256[2][2],uint256[2],uint256[1],uint256[2],uint256[2][2],uint256[2],uint256[1],uint256[2],uint256[2][2],uint256[2],uint256[1],uint256[2],uint256[2][2],uint256[2],uint256[1])":"402bc077","walletAgeVerifier()":"1e84324c","walletBalanceVerifier()":"153fc97c"}}}}}