{"contracts/ CreditScoring.sol":{"CreditScoring":{"abi":[{"inputs":[{"internalType":"address","name":"_debtToIncomeVerifier","type":"address"},{"internalType":"address","name":"_transactionHistoryVerifier","type":"address"},{"internalType":"address","name":"_walletAgeVerifier","type":"address"},{"internalType":"address","name":"_walletBalanceVerifier","type":"address"}],"stateMutability":"nonpayable","type":"constructor"},{"anonymous":false,"inputs":[{"indexed":true,"internalType":"address","name":"user","type":"address"},{"indexed":false,"internalType":"uint256","name":"creditScore","type":"uint256"}],"name":"CreditScoreCalculated","type":"event"},{"inputs":[],"name":"debtToIncomeVerifier","outputs":[{"internalType":"contract IVerifier","name":"","type":"address"}],"stateMutability":"view","type":"function"},{"inputs":[],"name":"transactionHistoryVerifier","outputs":[{"internalType":"contract IVerifier","name":"","type":"address"}],"stateMutability":"view","type":"function"},{"inputs":[{"internalType":"uint256[2]","name":"aDebtToIncome","type":"uint256[2]"},{"internalType":"uint256[2][2]","name":"bDebtToIncome","type":"uint256[2][2]"},{"internalType":"uint256[2]","name":"cDebtToIncome","type":"uint256[2]"},{"internalType":"uint256[1]","name":"publicSignalsDebtToIncome","type":"uint256[1]"},{"internalType":"uint256[2]","name":"aTransactionHistory","type":"uint256[2]"},{"internalType":"uint256[2][2]","name":"bTransactionHistory","type":"uint256[2][2]"},{"internalType":"uint256[2]","name":"cTransactionHistory","type":"uint256[2]"},{"internalType":"uint256[1]","name":"publicSignalsTransactionHistory","type":"uint256[1]"},{"internalType":"uint256[2]","name":"aWalletAge","type":"uint256[2]"},{"internalType":"uint256[2][2]","name":"bWalletAge","type":"uint256[2][2]"},{"internalType":"uint256[2]","name":"cWalletAge","type":"uint256[2]"},{"internalType":"uint256[1]","name":"publicSignalsWalletAge","type":"uint256[1]"},{"internalType":"uint256[2]","name":"aWalletBalance","type":"uint256[2]"},{"internalType":"uint256[2][2]","name":"bWalletBalance","type":"uint256[2][2]"},{"internalType":"uint256[2]","name":"cWalletBalance","type":"uint256[2]"},{"internalType":"uint256[1]","name":"publicSignalsWalletBalance","type":"uint256[1]"}],"name":"verifyAndCalculateCreditScore","outputs":[],"stateMutability":"nonpayable","type":"function"},{"inputs":[],"name":"walletAgeVerifier","outputs":[{"internalType":"contract IVerifier","name":"","type":"address"}],"stateMutability":"view","type":"function"},{"inputs":[],"name":"walletBalanceVerifier","outputs":[{"internalType":"contract IVerifier","name":"","type":"address"}],"stateMutability":"view","type":"function"}],"evm":{"bytecode":{"linkReferences":{},"object":"6080346100b957601f610b9f38819003918201601f19168301916001600160401b038311848410176100be578084926080946040528339810103126100b957610047816100d4565b90610054602082016100d4565b61006c6060610065604085016100d4565b93016100d4565b9060018060a01b03928380928160018060a01b03199716876000541617600055168560015416176001551683600254161760025516906003541617600355604051610ab690816100e98239f35b600080fd5b634e487b7160e01b600052604160045260246000fd5b51906001600160a01b03821682036100b95756fe60c080604052600436101561001357600080fd5b60003560e01c908163153fc97c146108b8575080631e84324c1461088f578063206133cf14610866578063402bc07714610084576369aa79a81461005657600080fd5b3461007f57600036600319011261007f576000546040516001600160a01b039091168152602090f35b600080fd5b3461007f5761048036600319011261007f57366023121561007f576040516100ab816108dc565b803660441161007f576004905b604482106108565782366063121561007f57604051906100d7826108dc565b60c48236821161007f576044905b82821061083c5750503660e3121561007f5760405190610104826108dc565b816101049136831161007f57905b82821061082c57505036610123121561007f576101346040518060a05261090e565b60a0516101249136831161007f57905b82821061081c57505036610143121561007f5760405193610164856108dc565b846101649236841161007f57905b83821061080c57505036610183121561007f5760405194610192866108dc565b856101e49336851161007f57905b8482106107f257505036610203121561007f57604051956101c0876108dc565b866102249436861161007f57905b8582106107e257505036610243121561007f57604051966101ee8861090e565b876102449536871161007f57905b8682106107d257505036610263121561007f576040519261021c846108dc565b836102849636881161007f57905b8782106107c2575050366102a3121561007f576040519261024a846108dc565b836103049736891161007f57905b8882106107a857505036610323121561007f5760405192610278846108dc565b8361034498368a1161007f57905b89821061079857505036610363121561007f57604051996102a68b61090e565b8a61036499368b1161007f57905b8a821061078857505036610383121561007f57604051976102d4896108dc565b886103a49a368c1161007f57905b8b8210610778575050366103c3121561007f576040519a6103028c6108dc565b8b6104249b368d1161007f57905b8c821061075e57505036610443121561007f576040519a6103308c6108dc565b8b90366104641161007f57905b610464821061074e57505036610483121561007f576103616040518060805261090e565b608051366104841161007f57610464905b610484821061073e575050916020916103b29360018060a01b036000541691604051958694859384936343753b4d60e01b855260a05192600486016109d1565b03915afa9081156105eb5760009161071f575b50156106cf578a9260209260018060a01b0360015416916103fc604051968795869485946343753b4d60e01b8652600486016109d1565b03915afa9081156105eb576000916106b0575b501561065b57869260209260018060a01b036002541691610446604051968795869485946343753b4d60e01b8652600486016109d1565b03915afa9081156105eb5760009161063c575b50156105f7576003546040516343753b4d60e01b8152608051909460209486946001600160a01b039094169385938493610498939192600486016109d1565b03915afa9081156105eb576000916105bc575b501561056c57600091600160a0515114610563575b51600114610551575b5160011461052f575b6001608051511461050c575b6040519081527feb75f0e126a667b55e87592e35c34b103f77eaa1bf5e2a0ef6fb6c8c26f3c5b460203392a2005b60198101809111156104de575b634e487b7160e01b600052601160045260246000fd5b60198101809111156104d257634e487b7160e01b600052601160045260246000fd5b906019810180911161051957906104c9565b601992506104c0565b60405162461bcd60e51b815260206004820152602260248201527f57616c6c65742042616c616e636520766572696669636174696f6e206661696c604482015261195960f21b6064820152608490fd5b6105de915060203d6020116105e4575b6105d6818361092a565b810190610991565b836104ab565b503d6105cc565b6040513d6000823e3d90fd5b60405162461bcd60e51b815260206004820152601e60248201527f57616c6c65742041676520766572696669636174696f6e206661696c656400006044820152606490fd5b610655915060203d6020116105e4576105d6818361092a565b86610459565b60405162461bcd60e51b815260206004820152602760248201527f5472616e73616374696f6e20486973746f727920766572696669636174696f6e6044820152660819985a5b195960ca1b6064820152608490fd5b6106c9915060203d6020116105e4576105d6818361092a565b8961040f565b60405162461bcd60e51b815260206004820152602260248201527f446562742d746f2d496e636f6d6520766572696669636174696f6e206661696c604482015261195960f21b6064820152608490fd5b610738915060203d6020116105e4576105d6818361092a565b8c6103c5565b8135815260209182019101610372565b813581526020918201910161033d565b602060409161076d368561094c565b815201910190610310565b81358152602091820191016102e2565b81358152602091820191016102b4565b8135815260209182019101610286565b60206040916107b7368561094c565b815201910190610258565b813581526020918201910161022a565b81358152602091820191016101fc565b81358152602091820191016101ce565b6020604091610801368561094c565b8152019101906101a0565b8135815260209182019101610172565b8135815260209182019101610144565b8135815260209182019101610112565b602060409161084b368561094c565b8152019101906100e5565b81358152602091820191016100b8565b3461007f57600036600319011261007f576001546040516001600160a01b039091168152602090f35b3461007f57600036600319011261007f576002546040516001600160a01b039091168152602090f35b3461007f57600036600319011261007f576003546001600160a01b03168152602090f35b6040810190811067ffffffffffffffff8211176108f857604052565b634e487b7160e01b600052604160045260246000fd5b6020810190811067ffffffffffffffff8211176108f857604052565b90601f8019910116810190811067ffffffffffffffff8211176108f857604052565b9080601f8301121561007f5760405191610965836108dc565b82906040810192831161007f57905b8282106109815750505090565b8135815260209182019101610974565b9081602091031261007f5751801515810361007f5790565b6000915b600283106109ba57505050565b6001908251815260208091019201920191906109ad565b92939490946109e5846101208101976109a9565b60409182850193916000945b600280871015610a3c578590855183906000915b838310610a225750505050602090600192019401950194926109f1565b815181528994506001929092019160209182019101610a05565b5050949250946101009350610a56915060c08301906109a9565b01906000915b60018310610a6957505050565b600190825181526020809101920192019190610a5c56fea26469706673582212204e1979d7705c7d711f840c6bc46692d9d787ab3dff74dccf40316148ce89ff5264736f6c63430008110033","opcodes":"PUSH1 0x80 CALLVALUE PUSH2 0xB9 JUMPI PUSH1 0x1F PUSH2 0xB9F CODESIZE DUP2 SWAP1 SUB SWAP2 DUP3 ADD PUSH1 0x1F NOT AND DUP4 ADD SWAP2 PUSH1 0x1 PUSH1 0x1 PUSH1 0x40 SHL SUB DUP4 GT DUP5 DUP5 LT OR PUSH2 0xBE JUMPI DUP1 DUP5 SWAP3 PUSH1 0x80 SWAP5 PUSH1 0x40 MSTORE DUP4 CODECOPY DUP2 ADD SUB SLT PUSH2 0xB9 JUMPI PUSH2 0x47 DUP2 PUSH2 0xD4 JUMP JUMPDEST SWAP1 PUSH2 0x54 PUSH1 0x20 DUP3 ADD PUSH2 0xD4 JUMP JUMPDEST PUSH2 0x6C PUSH1 0x60 PUSH2 0x65 PUSH1 0x40 DUP6 ADD PUSH2 0xD4 JUMP JUMPDEST SWAP4 ADD PUSH2 0xD4 JUMP JUMPDEST SWAP1 PUSH1 0x1 DUP1 PUSH1 0xA0 SHL SUB SWAP3 DUP4 DUP1 SWAP3 DUP2 PUSH1 0x1 DUP1 PUSH1 0xA0 SHL SUB NOT SWAP8 AND DUP8 PUSH1 0x0 SLOAD AND OR PUSH1 0x0 SSTORE AND DUP6 PUSH1 0x1 SLOAD AND OR PUSH1 0x1 SSTORE AND DUP4 PUSH1 0x2 SLOAD AND OR PUSH1 0x2 SSTORE AND SWAP1 PUSH1 0x3 SLOAD AND OR PUSH1 0x3 SSTORE PUSH1 0x40 MLOAD PUSH2 0xAB6 SWAP1 DUP2 PUSH2 0xE9 DUP3 CODECOPY RETURN JUMPDEST PUSH1 0x0 DUP1 REVERT JUMPDEST PUSH4 0x4E487B71 PUSH1 0xE0 SHL PUSH1 0x0 MSTORE PUSH1 0x41 PUSH1 0x4 MSTORE PUSH1 0x24 PUSH1 0x0 REVERT JUMPDEST MLOAD SWAP1 PUSH1 0x1 PUSH1 0x1 PUSH1 0xA0 SHL SUB DUP3 AND DUP3 SUB PUSH2 0xB9 JUMPI JUMP INVALID PUSH1 0xC0 DUP1 PUSH1 0x40 MSTORE PUSH1 0x4 CALLDATASIZE LT ISZERO PUSH2 0x13 JUMPI PUSH1 0x0 DUP1 REVERT JUMPDEST PUSH1 0x0 CALLDATALOAD PUSH1 0xE0 SHR SWAP1 DUP2 PUSH4 0x153FC97C EQ PUSH2 0x8B8 JUMPI POP DUP1 PUSH4 0x1E84324C EQ PUSH2 0x88F JUMPI DUP1 PUSH4 0x206133CF EQ PUSH2 0x866 JUMPI DUP1 PUSH4 0x402BC077 EQ PUSH2 0x84 JUMPI PUSH4 0x69AA79A8 EQ PUSH2 0x56 JUMPI PUSH1 0x0 DUP1 REVERT JUMPDEST CALLVALUE PUSH2 0x7F JUMPI PUSH1 0x0 CALLDATASIZE PUSH1 0x3 NOT ADD SLT PUSH2 0x7F JUMPI PUSH1 0x0 SLOAD PUSH1 0x40 MLOAD PUSH1 0x1 PUSH1 0x1 PUSH1 0xA0 SHL SUB SWAP1 SWAP2 AND DUP2 MSTORE PUSH1 0x20 SWAP1 RETURN JUMPDEST PUSH1 0x0 DUP1 REVERT JUMPDEST CALLVALUE PUSH2 0x7F JUMPI PUSH2 0x480 CALLDATASIZE PUSH1 0x3 NOT ADD SLT PUSH2 0x7F JUMPI CALLDATASIZE PUSH1 0x23 SLT ISZERO PUSH2 0x7F JUMPI PUSH1 0x40 MLOAD PUSH2 0xAB DUP2 PUSH2 0x8DC JUMP JUMPDEST DUP1 CALLDATASIZE PUSH1 0x44 GT PUSH2 0x7F JUMPI PUSH1 0x4 SWAP1 JUMPDEST PUSH1 0x44 DUP3 LT PUSH2 0x856 JUMPI DUP3 CALLDATASIZE PUSH1 0x63 SLT ISZERO PUSH2 0x7F JUMPI PUSH1 0x40 MLOAD SWAP1 PUSH2 0xD7 DUP3 PUSH2 0x8DC JUMP JUMPDEST PUSH1 0xC4 DUP3 CALLDATASIZE DUP3 GT PUSH2 0x7F JUMPI PUSH1 0x44 SWAP1 JUMPDEST DUP3 DUP3 LT PUSH2 0x83C JUMPI POP POP CALLDATASIZE PUSH1 0xE3 SLT ISZERO PUSH2 0x7F JUMPI PUSH1 0x40 MLOAD SWAP1 PUSH2 0x104 DUP3 PUSH2 0x8DC JUMP JUMPDEST DUP2 PUSH2 0x104 SWAP2 CALLDATASIZE DUP4 GT PUSH2 0x7F JUMPI SWAP1 JUMPDEST DUP3 DUP3 LT PUSH2 0x82C JUMPI POP POP CALLDATASIZE PUSH2 0x123 SLT ISZERO PUSH2 0x7F JUMPI PUSH2 0x134 PUSH1 0x40 MLOAD DUP1 PUSH1 0xA0 MSTORE PUSH2 0x90E JUMP JUMPDEST PUSH1 0xA0 MLOAD PUSH2 0x124 SWAP2 CALLDATASIZE DUP4 GT PUSH2 0x7F JUMPI SWAP1 JUMPDEST DUP3 DUP3 LT PUSH2 0x81C JUMPI POP POP CALLDATASIZE PUSH2 0x143 SLT ISZERO PUSH2 0x7F JUMPI PUSH1 0x40 MLOAD SWAP4 PUSH2 0x164 DUP6 PUSH2 0x8DC JUMP JUMPDEST DUP5 PUSH2 0x164 SWAP3 CALLDATASIZE DUP5 GT PUSH2 0x7F JUMPI SWAP1 JUMPDEST DUP4 DUP3 LT PUSH2 0x80C JUMPI POP POP CALLDATASIZE PUSH2 0x183 SLT ISZERO PUSH2 0x7F JUMPI PUSH1 0x40 MLOAD SWAP5 PUSH2 0x192 DUP7 PUSH2 0x8DC JUMP JUMPDEST DUP6 PUSH2 0x1E4 SWAP4 CALLDATASIZE DUP6 GT PUSH2 0x7F JUMPI SWAP1 JUMPDEST DUP5 DUP3 LT PUSH2 0x7F2 JUMPI POP POP CALLDATASIZE PUSH2 0x203 SLT ISZERO PUSH2 0x7F JUMPI PUSH1 0x40 MLOAD SWAP6 PUSH2 0x1C0 DUP8 PUSH2 0x8DC JUMP JUMPDEST DUP7 PUSH2 0x224 SWAP5 CALLDATASIZE DUP7 GT PUSH2 0x7F JUMPI SWAP1 JUMPDEST DUP6 DUP3 LT PUSH2 0x7E2 JUMPI POP POP CALLDATASIZE PUSH2 0x243 SLT ISZERO PUSH2 0x7F JUMPI PUSH1 0x40 MLOAD SWAP7 PUSH2 0x1EE DUP9 PUSH2 0x90E JUMP JUMPDEST DUP8 PUSH2 0x244 SWAP6 CALLDATASIZE DUP8 GT PUSH2 0x7F JUMPI SWAP1 JUMPDEST DUP7 DUP3 LT PUSH2 0x7D2 JUMPI POP POP CALLDATASIZE PUSH2 0x263 SLT ISZERO PUSH2 0x7F JUMPI PUSH1 0x40 MLOAD SWAP3 PUSH2 0x21C DUP5 PUSH2 0x8DC JUMP JUMPDEST DUP4 PUSH2 0x284 SWAP7 CALLDATASIZE DUP9 GT PUSH2 0x7F JUMPI SWAP1 JUMPDEST DUP8 DUP3 LT PUSH2 0x7C2 JUMPI POP POP CALLDATASIZE PUSH2 0x2A3 SLT ISZERO PUSH2 0x7F JUMPI PUSH1 0x40 MLOAD SWAP3 PUSH2 0x24A DUP5 PUSH2 0x8DC JUMP JUMPDEST DUP4 PUSH2 0x304 SWAP8 CALLDATASIZE DUP10 GT PUSH2 0x7F JUMPI SWAP1 JUMPDEST DUP9 DUP3 LT PUSH2 0x7A8 JUMPI POP POP CALLDATASIZE PUSH2 0x323 SLT ISZERO PUSH2 0x7F JUMPI PUSH1 0x40 MLOAD SWAP3 PUSH2 0x278 DUP5 PUSH2 0x8DC JUMP JUMPDEST DUP4 PUSH2 0x344 SWAP9 CALLDATASIZE DUP11 GT PUSH2 0x7F JUMPI SWAP1 JUMPDEST DUP10 DUP3 LT PUSH2 0x798 JUMPI POP POP CALLDATASIZE PUSH2 0x363 SLT ISZERO PUSH2 0x7F JUMPI PUSH1 0x40 MLOAD SWAP10 PUSH2 0x2A6 DUP12 PUSH2 0x90E JUMP JUMPDEST DUP11 PUSH2 0x364 SWAP10 CALLDATASIZE DUP12 GT PUSH2 0x7F JUMPI SWAP1 JUMPDEST DUP11 DUP3 LT PUSH2 0x788 JUMPI POP POP CALLDATASIZE PUSH2 0x383 SLT ISZERO PUSH2 0x7F JUMPI PUSH1 0x40 MLOAD SWAP8 PUSH2 0x2D4 DUP10 PUSH2 0x8DC JUMP JUMPDEST DUP9 PUSH2 0x3A4 SWAP11 CALLDATASIZE DUP13 GT PUSH2 0x7F JUMPI SWAP1 JUMPDEST DUP12 DUP3 LT PUSH2 0x778 JUMPI POP POP CALLDATASIZE PUSH2 0x3C3 SLT ISZERO PUSH2 0x7F JUMPI PUSH1 0x40 MLOAD SWAP11 PUSH2 0x302 DUP13 PUSH2 0x8DC JUMP JUMPDEST DUP12 PUSH2 0x424 SWAP12 CALLDATASIZE DUP14 GT PUSH2 0x7F JUMPI SWAP1 JUMPDEST DUP13 DUP3 LT PUSH2 0x75E JUMPI POP POP CALLDATASIZE PUSH2 0x443 SLT ISZERO PUSH2 0x7F JUMPI PUSH1 0x40 MLOAD SWAP11 PUSH2 0x330 DUP13 PUSH2 0x8DC JUMP JUMPDEST DUP12 SWAP1 CALLDATASIZE PUSH2 0x464 GT PUSH2 0x7F JUMPI SWAP1 JUMPDEST PUSH2 0x464 DUP3 LT PUSH2 0x74E JUMPI POP POP CALLDATASIZE PUSH2 0x483 SLT ISZERO PUSH2 0x7F JUMPI PUSH2 0x361 PUSH1 0x40 MLOAD DUP1 PUSH1 0x80 MSTORE PUSH2 0x90E JUMP JUMPDEST PUSH1 0x80 MLOAD CALLDATASIZE PUSH2 0x484 GT PUSH2 0x7F JUMPI PUSH2 0x464 SWAP1 JUMPDEST PUSH2 0x484 DUP3 LT PUSH2 0x73E JUMPI POP POP SWAP2 PUSH1 0x20 SWAP2 PUSH2 0x3B2 SWAP4 PUSH1 0x1 DUP1 PUSH1 0xA0 SHL SUB PUSH1 0x0 SLOAD AND SWAP2 PUSH1 0x40 MLOAD SWAP6 DUP7 SWAP5 DUP6 SWAP4 DUP5 SWAP4 PUSH4 0x43753B4D PUSH1 0xE0 SHL DUP6 MSTORE PUSH1 0xA0 MLOAD SWAP3 PUSH1 0x4 DUP7 ADD PUSH2 0x9D1 JUMP JUMPDEST SUB SWAP2 GAS STATICCALL SWAP1 DUP2 ISZERO PUSH2 0x5EB JUMPI PUSH1 0x0 SWAP2 PUSH2 0x71F JUMPI JUMPDEST POP ISZERO PUSH2 0x6CF JUMPI DUP11 SWAP3 PUSH1 0x20 SWAP3 PUSH1 0x1 DUP1 PUSH1 0xA0 SHL SUB PUSH1 0x1 SLOAD AND SWAP2 PUSH2 0x3FC PUSH1 0x40 MLOAD SWAP7 DUP8 SWAP6 DUP7 SWAP5 DUP6 SWAP5 PUSH4 0x43753B4D PUSH1 0xE0 SHL DUP7 MSTORE PUSH1 0x4 DUP7 ADD PUSH2 0x9D1 JUMP JUMPDEST SUB SWAP2 GAS STATICCALL SWAP1 DUP2 ISZERO PUSH2 0x5EB JUMPI PUSH1 0x0 SWAP2 PUSH2 0x6B0 JUMPI JUMPDEST POP ISZERO PUSH2 0x65B JUMPI DUP7 SWAP3 PUSH1 0x20 SWAP3 PUSH1 0x1 DUP1 PUSH1 0xA0 SHL SUB PUSH1 0x2 SLOAD AND SWAP2 PUSH2 0x446 PUSH1 0x40 MLOAD SWAP7 DUP8 SWAP6 DUP7 SWAP5 DUP6 SWAP5 PUSH4 0x43753B4D PUSH1 0xE0 SHL DUP7 MSTORE PUSH1 0x4 DUP7 ADD PUSH2 0x9D1 JUMP JUMPDEST SUB SWAP2 GAS STATICCALL SWAP1 DUP2 ISZERO PUSH2 0x5EB JUMPI PUSH1 0x0 SWAP2 PUSH2 0x63C JUMPI JUMPDEST POP ISZERO PUSH2 0x5F7 JUMPI PUSH1 0x3 SLOAD PUSH1 0x40 MLOAD PUSH4 0x43753B4D PUSH1 0xE0 SHL DUP2 MSTORE PUSH1 0x80 MLOAD SWAP1 SWAP5 PUSH1 0x20 SWAP5 DUP7 SWAP5 PUSH1 0x1 PUSH1 0x1 PUSH1 0xA0 SHL SUB SWAP1 SWAP5 AND SWAP4 DUP6 SWAP4 DUP5 SWAP4 PUSH2 0x498 SWAP4 SWAP2 SWAP3 PUSH1 0x4 DUP7 ADD PUSH2 0x9D1 JUMP JUMPDEST SUB SWAP2 GAS STATICCALL SWAP1 DUP2 ISZERO PUSH2 0x5EB JUMPI PUSH1 0x0 SWAP2 PUSH2 0x5BC JUMPI JUMPDEST POP ISZERO PUSH2 0x56C JUMPI PUSH1 0x0 SWAP2 PUSH1 0x1 PUSH1 0xA0 MLOAD MLOAD EQ PUSH2 0x563 JUMPI JUMPDEST MLOAD PUSH1 0x1 EQ PUSH2 0x551 JUMPI JUMPDEST MLOAD PUSH1 0x1 EQ PUSH2 0x52F JUMPI JUMPDEST PUSH1 0x1 PUSH1 0x80 MLOAD MLOAD EQ PUSH2 0x50C JUMPI JUMPDEST PUSH1 0x40 MLOAD SWAP1 DUP2 MSTORE PUSH32 0xEB75F0E126A667B55E87592E35C34B103F77EAA1BF5E2A0EF6FB6C8C26F3C5B4 PUSH1 0x20 CALLER SWAP3 LOG2 STOP JUMPDEST PUSH1 0x19 DUP2 ADD DUP1 SWAP2 GT ISZERO PUSH2 0x4DE JUMPI JUMPDEST PUSH4 0x4E487B71 PUSH1 0xE0 SHL PUSH1 0x0 MSTORE PUSH1 0x11 PUSH1 0x4 MSTORE PUSH1 0x24 PUSH1 0x0 REVERT JUMPDEST PUSH1 0x19 DUP2 ADD DUP1 SWAP2 GT ISZERO PUSH2 0x4D2 JUMPI PUSH4 0x4E487B71 PUSH1 0xE0 SHL PUSH1 0x0 MSTORE PUSH1 0x11 PUSH1 0x4 MSTORE PUSH1 0x24 PUSH1 0x0 REVERT JUMPDEST SWAP1 PUSH1 0x19 DUP2 ADD DUP1 SWAP2 GT PUSH2 0x519 JUMPI SWAP1 PUSH2 0x4C9 JUMP JUMPDEST PUSH1 0x19 SWAP3 POP PUSH2 0x4C0 JUMP JUMPDEST PUSH1 0x40 MLOAD PUSH3 0x461BCD PUSH1 0xE5 SHL DUP2 MSTORE PUSH1 0x20 PUSH1 0x4 DUP3 ADD MSTORE PUSH1 0x22 PUSH1 0x24 DUP3 ADD MSTORE PUSH32 0x57616C6C65742042616C616E636520766572696669636174696F6E206661696C PUSH1 0x44 DUP3 ADD MSTORE PUSH2 0x1959 PUSH1 0xF2 SHL PUSH1 0x64 DUP3 ADD MSTORE PUSH1 0x84 SWAP1 REVERT JUMPDEST PUSH2 0x5DE SWAP2 POP PUSH1 0x20 RETURNDATASIZE PUSH1 0x20 GT PUSH2 0x5E4 JUMPI JUMPDEST PUSH2 0x5D6 DUP2 DUP4 PUSH2 0x92A JUMP JUMPDEST DUP2 ADD SWAP1 PUSH2 0x991 JUMP JUMPDEST DUP4 PUSH2 0x4AB JUMP JUMPDEST POP RETURNDATASIZE PUSH2 0x5CC JUMP JUMPDEST PUSH1 0x40 MLOAD RETURNDATASIZE PUSH1 0x0 DUP3 RETURNDATACOPY RETURNDATASIZE SWAP1 REVERT JUMPDEST PUSH1 0x40 MLOAD PUSH3 0x461BCD PUSH1 0xE5 SHL DUP2 MSTORE PUSH1 0x20 PUSH1 0x4 DUP3 ADD MSTORE PUSH1 0x1E PUSH1 0x24 DUP3 ADD MSTORE PUSH32 0x57616C6C65742041676520766572696669636174696F6E206661696C65640000 PUSH1 0x44 DUP3 ADD MSTORE PUSH1 0x64 SWAP1 REVERT JUMPDEST PUSH2 0x655 SWAP2 POP PUSH1 0x20 RETURNDATASIZE PUSH1 0x20 GT PUSH2 0x5E4 JUMPI PUSH2 0x5D6 DUP2 DUP4 PUSH2 0x92A JUMP JUMPDEST DUP7 PUSH2 0x459 JUMP JUMPDEST PUSH1 0x40 MLOAD PUSH3 0x461BCD PUSH1 0xE5 SHL DUP2 MSTORE PUSH1 0x20 PUSH1 0x4 DUP3 ADD MSTORE PUSH1 0x27 PUSH1 0x24 DUP3 ADD MSTORE PUSH32 0x5472616E73616374696F6E20486973746F727920766572696669636174696F6E PUSH1 0x44 DUP3 ADD MSTORE PUSH7 0x819985A5B1959 PUSH1 0xCA SHL PUSH1 0x64 DUP3 ADD MSTORE PUSH1 0x84 SWAP1 REVERT JUMPDEST PUSH2 0x6C9 SWAP2 POP PUSH1 0x20 RETURNDATASIZE PUSH1 0x20 GT PUSH2 0x5E4 JUMPI PUSH2 0x5D6 DUP2 DUP4 PUSH2 0x92A JUMP JUMPDEST DUP10 PUSH2 0x40F JUMP JUMPDEST PUSH1 0x40 MLOAD PUSH3 0x461BCD PUSH1 0xE5 SHL DUP2 MSTORE PUSH1 0x20 PUSH1 0x4 DUP3 ADD MSTORE PUSH1 0x22 PUSH1 0x24 DUP3 ADD MSTORE PUSH32 0x446562742D746F2D496E636F6D6520766572696669636174696F6E206661696C PUSH1 0x44 DUP3 ADD MSTORE PUSH2 0x1959 PUSH1 0xF2 SHL PUSH1 0x64 DUP3 ADD MSTORE PUSH1 0x84 SWAP1 REVERT JUMPDEST PUSH2 0x738 SWAP2 POP PUSH1 0x20 RETURNDATASIZE PUSH1 0x20 GT PUSH2 0x5E4 JUMPI PUSH2 0x5D6 DUP2 DUP4 PUSH2 0x92A JUMP JUMPDEST DUP13 PUSH2 0x3C5 JUMP JUMPDEST DUP2 CALLDATALOAD DUP2 MSTORE PUSH1 0x20 SWAP2 DUP3 ADD SWAP2 ADD PUSH2 0x372 JUMP JUMPDEST DUP2 CALLDATALOAD DUP2 MSTORE PUSH1 0x20 SWAP2 DUP3 ADD SWAP2 ADD PUSH2 0x33D JUMP JUMPDEST PUSH1 0x20 PUSH1 0x40 SWAP2 PUSH2 0x76D CALLDATASIZE DUP6 PUSH2 0x94C JUMP JUMPDEST DUP2 MSTORE ADD SWAP2 ADD SWAP1 PUSH2 0x310 JUMP JUMPDEST DUP2 CALLDATALOAD DUP2 MSTORE PUSH1 0x20 SWAP2 DUP3 ADD SWAP2 ADD PUSH2 0x2E2 JUMP JUMPDEST DUP2 CALLDATALOAD DUP2 MSTORE PUSH1 0x20 SWAP2 DUP3 ADD SWAP2 ADD PUSH2 0x2B4 JUMP JUMPDEST DUP2 CALLDATALOAD DUP2 MSTORE PUSH1 0x20 SWAP2 DUP3 ADD SWAP2 ADD PUSH2 0x286 JUMP JUMPDEST PUSH1 0x20 PUSH1 0x40 SWAP2 PUSH2 0x7B7 CALLDATASIZE DUP6 PUSH2 0x94C JUMP JUMPDEST DUP2 MSTORE ADD SWAP2 ADD SWAP1 PUSH2 0x258 JUMP JUMPDEST DUP2 CALLDATALOAD DUP2 MSTORE PUSH1 0x20 SWAP2 DUP3 ADD SWAP2 ADD PUSH2 0x22A JUMP JUMPDEST DUP2 CALLDATALOAD DUP2 MSTORE PUSH1 0x20 SWAP2 DUP3 ADD SWAP2 ADD PUSH2 0x1FC JUMP JUMPDEST DUP2 CALLDATALOAD DUP2 MSTORE PUSH1 0x20 SWAP2 DUP3 ADD SWAP2 ADD PUSH2 0x1CE JUMP JUMPDEST PUSH1 0x20 PUSH1 0x40 SWAP2 PUSH2 0x801 CALLDATASIZE DUP6 PUSH2 0x94C JUMP JUMPDEST DUP2 MSTORE ADD SWAP2 ADD SWAP1 PUSH2 0x1A0 JUMP JUMPDEST DUP2 CALLDATALOAD DUP2 MSTORE PUSH1 0x20 SWAP2 DUP3 ADD SWAP2 ADD PUSH2 0x172 JUMP JUMPDEST DUP2 CALLDATALOAD DUP2 MSTORE PUSH1 0x20 SWAP2 DUP3 ADD SWAP2 ADD PUSH2 0x144 JUMP JUMPDEST DUP2 CALLDATALOAD DUP2 MSTORE PUSH1 0x20 SWAP2 DUP3 ADD SWAP2 ADD PUSH2 0x112 JUMP JUMPDEST PUSH1 0x20 PUSH1 0x40 SWAP2 PUSH2 0x84B CALLDATASIZE DUP6 PUSH2 0x94C JUMP JUMPDEST DUP2 MSTORE ADD SWAP2 ADD SWAP1 PUSH2 0xE5 JUMP JUMPDEST DUP2 CALLDATALOAD DUP2 MSTORE PUSH1 0x20 SWAP2 DUP3 ADD SWAP2 ADD PUSH2 0xB8 JUMP JUMPDEST CALLVALUE PUSH2 0x7F JUMPI PUSH1 0x0 CALLDATASIZE PUSH1 0x3 NOT ADD SLT PUSH2 0x7F JUMPI PUSH1 0x1 SLOAD PUSH1 0x40 MLOAD PUSH1 0x1 PUSH1 0x1 PUSH1 0xA0 SHL SUB SWAP1 SWAP2 AND DUP2 MSTORE PUSH1 0x20 SWAP1 RETURN JUMPDEST CALLVALUE PUSH2 0x7F JUMPI PUSH1 0x0 CALLDATASIZE PUSH1 0x3 NOT ADD SLT PUSH2 0x7F JUMPI PUSH1 0x2 SLOAD PUSH1 0x40 MLOAD PUSH1 0x1 PUSH1 0x1 PUSH1 0xA0 SHL SUB SWAP1 SWAP2 AND DUP2 MSTORE PUSH1 0x20 SWAP1 RETURN JUMPDEST CALLVALUE PUSH2 0x7F JUMPI PUSH1 0x0 CALLDATASIZE PUSH1 0x3 NOT ADD SLT PUSH2 0x7F JUMPI PUSH1 0x3 SLOAD PUSH1 0x1 PUSH1 0x1 PUSH1 0xA0 SHL SUB AND DUP2 MSTORE PUSH1 0x20 SWAP1 RETURN JUMPDEST PUSH1 0x40 DUP2 ADD SWAP1 DUP2 LT PUSH8 0xFFFFFFFFFFFFFFFF DUP3 GT OR PUSH2 0x8F8 JUMPI PUSH1 0x40 MSTORE JUMP JUMPDEST PUSH4 0x4E487B71 PUSH1 0xE0 SHL PUSH1 0x0 MSTORE PUSH1 0x41 PUSH1 0x4 MSTORE PUSH1 0x24 PUSH1 0x0 REVERT JUMPDEST PUSH1 0x20 DUP2 ADD SWAP1 DUP2 LT PUSH8 0xFFFFFFFFFFFFFFFF DUP3 GT OR PUSH2 0x8F8 JUMPI PUSH1 0x40 MSTORE JUMP JUMPDEST SWAP1 PUSH1 0x1F DUP1 NOT SWAP2 ADD AND DUP2 ADD SWAP1 DUP2 LT PUSH8 0xFFFFFFFFFFFFFFFF DUP3 GT OR PUSH2 0x8F8 JUMPI PUSH1 0x40 MSTORE JUMP JUMPDEST SWAP1 DUP1 PUSH1 0x1F DUP4 ADD SLT ISZERO PUSH2 0x7F JUMPI PUSH1 0x40 MLOAD SWAP2 PUSH2 0x965 DUP4 PUSH2 0x8DC JUMP JUMPDEST DUP3 SWAP1 PUSH1 0x40 DUP2 ADD SWAP3 DUP4 GT PUSH2 0x7F JUMPI SWAP1 JUMPDEST DUP3 DUP3 LT PUSH2 0x981 JUMPI POP POP POP SWAP1 JUMP JUMPDEST DUP2 CALLDATALOAD DUP2 MSTORE PUSH1 0x20 SWAP2 DUP3 ADD SWAP2 ADD PUSH2 0x974 JUMP JUMPDEST SWAP1 DUP2 PUSH1 0x20 SWAP2 SUB SLT PUSH2 0x7F JUMPI MLOAD DUP1 ISZERO ISZERO DUP2 SUB PUSH2 0x7F JUMPI SWAP1 JUMP JUMPDEST PUSH1 0x0 SWAP2 JUMPDEST PUSH1 0x2 DUP4 LT PUSH2 0x9BA JUMPI POP POP POP JUMP JUMPDEST PUSH1 0x1 SWAP1 DUP3 MLOAD DUP2 MSTORE PUSH1 0x20 DUP1 SWAP2 ADD SWAP3 ADD SWAP3 ADD SWAP2 SWAP1 PUSH2 0x9AD JUMP JUMPDEST SWAP3 SWAP4 SWAP5 SWAP1 SWAP5 PUSH2 0x9E5 DUP5 PUSH2 0x120 DUP2 ADD SWAP8 PUSH2 0x9A9 JUMP JUMPDEST PUSH1 0x40 SWAP2 DUP3 DUP6 ADD SWAP4 SWAP2 PUSH1 0x0 SWAP5 JUMPDEST PUSH1 0x2 DUP1 DUP8 LT ISZERO PUSH2 0xA3C JUMPI DUP6 SWAP1 DUP6 MLOAD DUP4 SWAP1 PUSH1 0x0 SWAP2 JUMPDEST DUP4 DUP4 LT PUSH2 0xA22 JUMPI POP POP POP POP PUSH1 0x20 SWAP1 PUSH1 0x1 SWAP3 ADD SWAP5 ADD SWAP6 ADD SWAP5 SWAP3 PUSH2 0x9F1 JUMP JUMPDEST DUP2 MLOAD DUP2 MSTORE DUP10 SWAP5 POP PUSH1 0x1 SWAP3 SWAP1 SWAP3 ADD SWAP2 PUSH1 0x20 SWAP2 DUP3 ADD SWAP2 ADD PUSH2 0xA05 JUMP JUMPDEST POP POP SWAP5 SWAP3 POP SWAP5 PUSH2 0x100 SWAP4 POP PUSH2 0xA56 SWAP2 POP PUSH1 0xC0 DUP4 ADD SWAP1 PUSH2 0x9A9 JUMP JUMPDEST ADD SWAP1 PUSH1 0x0 SWAP2 JUMPDEST PUSH1 0x1 DUP4 LT PUSH2 0xA69 JUMPI POP POP POP JUMP JUMPDEST PUSH1 0x1 SWAP1 DUP3 MLOAD DUP2 MSTORE PUSH1 0x20 DUP1 SWAP2 ADD SWAP3 ADD SWAP3 ADD SWAP2 SWAP1 PUSH2 0xA5C JUMP INVALID LOG2 PUSH5 0x6970667358 0x22 SLT KECCAK256 0x4E NOT PUSH26 0xD7705C7D711F840C6BC46692D9D787AB3DFF74DCCF40316148CE DUP10 SELFDESTRUCT MSTORE PUSH5 0x736F6C6343 STOP ADDMOD GT STOP CALLER "},"methodIdentifiers":{"debtToIncomeVerifier()":"69aa79a8","transactionHistoryVerifier()":"206133cf","verifyAndCalculateCreditScore(uint256[2],uint256[2][2],uint256[2],uint256[1],uint256[2],uint256[2][2],uint256[2],uint256[1],uint256[2],uint256[2][2],uint256[2],uint256[1],uint256[2],uint256[2][2],uint256[2],uint256[1])":"402bc077","walletAgeVerifier()":"1e84324c","walletBalanceVerifier()":"153fc97c"}}}}}