{
  "_format": "hh-sol-artifact-1",
  "contractName": "CreditScoring",
  "sourceName": "contracts/ CreditScoring.sol",
  "abi": [
    {
      "inputs": [
        {
          "internalType": "address",
          "name": "_debtToIncomeVerifier",
          "type": "address"
        },
        {
          "internalType": "address",
          "name": "_transactionHistoryVerifier",
          "type": "address"
        },
        {
          "internalType": "address",
          "name": "_walletAgeVerifier",
          "type": "address"
        },
        {
          "internalType": "address",
          "name": "_walletBalanceVerifier",
          "type": "address"
        }
      ],
      "stateMutability": "nonpayable",
      "type": "constructor"
    },
    {
      "anonymous": false,
      "inputs": [
        {
          "indexed": true,
          "internalType": "address",
          "name": "user",
          "type": "address"
        },
        {
          "indexed": false,
          "internalType": "uint256",
          "name": "creditScore",
          "type": "uint256"
        }
      ],
      "name": "CreditScoreCalculated",
      "type": "event"
    },
    {
      "inputs": [],
      "name": "debtToIncomeVerifier",
      "outputs": [
        {
          "internalType": "contract IVerifier",
          "name": "",
          "type": "address"
        }
      ],
      "stateMutability": "view",
      "type": "function"
    },
    {
      "inputs": [],
      "name": "transactionHistoryVerifier",
      "outputs": [
        {
          "internalType": "contract IVerifier",
          "name": "",
          "type": "address"
        }
      ],
      "stateMutability": "view",
      "type": "function"
    },
    {
      "inputs": [
        {
          "internalType": "uint256[2]",
          "name": "aDebtToIncome",
          "type": "uint256[2]"
        },
        {
          "internalType": "uint256[2][2]",
          "name": "bDebtToIncome",
          "type": "uint256[2][2]"
        },
        {
          "internalType": "uint256[2]",
          "name": "cDebtToIncome",
          "type": "uint256[2]"
        },
        {
          "internalType": "uint256[1]",
          "name": "publicSignalsDebtToIncome",
          "type": "uint256[1]"
        },
        {
          "internalType": "uint256[2]",
          "name": "aTransactionHistory",
          "type": "uint256[2]"
        },
        {
          "internalType": "uint256[2][2]",
          "name": "bTransactionHistory",
          "type": "uint256[2][2]"
        },
        {
          "internalType": "uint256[2]",
          "name": "cTransactionHistory",
          "type": "uint256[2]"
        },
        {
          "internalType": "uint256[1]",
          "name": "publicSignalsTransactionHistory",
          "type": "uint256[1]"
        },
        {
          "internalType": "uint256[2]",
          "name": "aWalletAge",
          "type": "uint256[2]"
        },
        {
          "internalType": "uint256[2][2]",
          "name": "bWalletAge",
          "type": "uint256[2][2]"
        },
        {
          "internalType": "uint256[2]",
          "name": "cWalletAge",
          "type": "uint256[2]"
        },
        {
          "internalType": "uint256[1]",
          "name": "publicSignalsWalletAge",
          "type": "uint256[1]"
        },
        {
          "internalType": "uint256[2]",
          "name": "aWalletBalance",
          "type": "uint256[2]"
        },
        {
          "internalType": "uint256[2][2]",
          "name": "bWalletBalance",
          "type": "uint256[2][2]"
        },
        {
          "internalType": "uint256[2]",
          "name": "cWalletBalance",
          "type": "uint256[2]"
        },
        {
          "internalType": "uint256[1]",
          "name": "publicSignalsWalletBalance",
          "type": "uint256[1]"
        }
      ],
      "name": "verifyAndCalculateCreditScore",
      "outputs": [],
      "stateMutability": "nonpayable",
      "type": "function"
    },
    {
      "inputs": [],
      "name": "walletAgeVerifier",
      "outputs": [
        {
          "internalType": "contract IVerifier",
          "name": "",
          "type": "address"
        }
      ],
      "stateMutability": "view",
      "type": "function"
    },
    {
      "inputs": [],
      "name": "walletBalanceVerifier",
      "outputs": [
        {
          "internalType": "contract IVerifier",
          "name": "",
          "type": "address"
        }
      ],
      "stateMutability": "view",
      "type": "function"
    }
  ],
  "bytecode": "0x6080346100b957601f610b9f38819003918201601f19168301916001600160401b038311848410176100be578084926080946040528339810103126100b957610047816100d4565b90610054602082016100d4565b61006c6060610065604085016100d4565b93016100d4565b9060018060a01b03928380928160018060a01b03199716876000541617600055168560015416176001551683600254161760025516906003541617600355604051610ab690816100e98239f35b600080fd5b634e487b7160e01b600052604160045260246000fd5b51906001600160a01b03821682036100b95756fe60c080604052600436101561001357600080fd5b60003560e01c908163153fc97c146108b8575080631e84324c1461088f578063206133cf14610866578063402bc07714610084576369aa79a81461005657600080fd5b3461007f57600036600319011261007f576000546040516001600160a01b039091168152602090f35b600080fd5b3461007f5761048036600319011261007f57366023121561007f576040516100ab816108dc565b803660441161007f576004905b604482106108565782366063121561007f57604051906100d7826108dc565b60c48236821161007f576044905b82821061083c5750503660e3121561007f5760405190610104826108dc565b816101049136831161007f57905b82821061082c57505036610123121561007f576101346040518060a05261090e565b60a0516101249136831161007f57905b82821061081c57505036610143121561007f5760405193610164856108dc565b846101649236841161007f57905b83821061080c57505036610183121561007f5760405194610192866108dc565b856101e49336851161007f57905b8482106107f257505036610203121561007f57604051956101c0876108dc565b866102249436861161007f57905b8582106107e257505036610243121561007f57604051966101ee8861090e565b876102449536871161007f57905b8682106107d257505036610263121561007f576040519261021c846108dc565b836102849636881161007f57905b8782106107c2575050366102a3121561007f576040519261024a846108dc565b836103049736891161007f57905b8882106107a857505036610323121561007f5760405192610278846108dc565b8361034498368a1161007f57905b89821061079857505036610363121561007f57604051996102a68b61090e565b8a61036499368b1161007f57905b8a821061078857505036610383121561007f57604051976102d4896108dc565b886103a49a368c1161007f57905b8b8210610778575050366103c3121561007f576040519a6103028c6108dc565b8b6104249b368d1161007f57905b8c821061075e57505036610443121561007f576040519a6103308c6108dc565b8b90366104641161007f57905b610464821061074e57505036610483121561007f576103616040518060805261090e565b608051366104841161007f57610464905b610484821061073e575050916020916103b29360018060a01b036000541691604051958694859384936343753b4d60e01b855260a05192600486016109d1565b03915afa9081156105eb5760009161071f575b50156106cf578a9260209260018060a01b0360015416916103fc604051968795869485946343753b4d60e01b8652600486016109d1565b03915afa9081156105eb576000916106b0575b501561065b57869260209260018060a01b036002541691610446604051968795869485946343753b4d60e01b8652600486016109d1565b03915afa9081156105eb5760009161063c575b50156105f7576003546040516343753b4d60e01b8152608051909460209486946001600160a01b039094169385938493610498939192600486016109d1565b03915afa9081156105eb576000916105bc575b501561056c57600091600160a0515114610563575b51600114610551575b5160011461052f575b6001608051511461050c575b6040519081527feb75f0e126a667b55e87592e35c34b103f77eaa1bf5e2a0ef6fb6c8c26f3c5b460203392a2005b60198101809111156104de575b634e487b7160e01b600052601160045260246000fd5b60198101809111156104d257634e487b7160e01b600052601160045260246000fd5b906019810180911161051957906104c9565b601992506104c0565b60405162461bcd60e51b815260206004820152602260248201527f57616c6c65742042616c616e636520766572696669636174696f6e206661696c604482015261195960f21b6064820152608490fd5b6105de915060203d6020116105e4575b6105d6818361092a565b810190610991565b836104ab565b503d6105cc565b6040513d6000823e3d90fd5b60405162461bcd60e51b815260206004820152601e60248201527f57616c6c65742041676520766572696669636174696f6e206661696c656400006044820152606490fd5b610655915060203d6020116105e4576105d6818361092a565b86610459565b60405162461bcd60e51b815260206004820152602760248201527f5472616e73616374696f6e20486973746f727920766572696669636174696f6e6044820152660819985a5b195960ca1b6064820152608490fd5b6106c9915060203d6020116105e4576105d6818361092a565b8961040f565b60405162461bcd60e51b815260206004820152602260248201527f446562742d746f2d496e636f6d6520766572696669636174696f6e206661696c604482015261195960f21b6064820152608490fd5b610738915060203d6020116105e4576105d6818361092a565b8c6103c5565b8135815260209182019101610372565b813581526020918201910161033d565b602060409161076d368561094c565b815201910190610310565b81358152602091820191016102e2565b81358152602091820191016102b4565b8135815260209182019101610286565b60206040916107b7368561094c565b815201910190610258565b813581526020918201910161022a565b81358152602091820191016101fc565b81358152602091820191016101ce565b6020604091610801368561094c565b8152019101906101a0565b8135815260209182019101610172565b8135815260209182019101610144565b8135815260209182019101610112565b602060409161084b368561094c565b8152019101906100e5565b81358152602091820191016100b8565b3461007f57600036600319011261007f576001546040516001600160a01b039091168152602090f35b3461007f57600036600319011261007f576002546040516001600160a01b039091168152602090f35b3461007f57600036600319011261007f576003546001600160a01b03168152602090f35b6040810190811067ffffffffffffffff8211176108f857604052565b634e487b7160e01b600052604160045260246000fd5b6020810190811067ffffffffffffffff8211176108f857604052565b90601f8019910116810190811067ffffffffffffffff8211176108f857604052565b9080601f8301121561007f5760405191610965836108dc565b82906040810192831161007f57905b8282106109815750505090565b8135815260209182019101610974565b9081602091031261007f5751801515810361007f5790565b6000915b600283106109ba57505050565b6001908251815260208091019201920191906109ad565b92939490946109e5846101208101976109a9565b60409182850193916000945b600280871015610a3c578590855183906000915b838310610a225750505050602090600192019401950194926109f1565b815181528994506001929092019160209182019101610a05565b5050949250946101009350610a56915060c08301906109a9565b01906000915b60018310610a6957505050565b600190825181526020809101920192019190610a5c56fea26469706673582212204e1979d7705c7d711f840c6bc46692d9d787ab3dff74dccf40316148ce89ff5264736f6c63430008110033",
  "linkReferences": {},
  "deployedLinkReferences": {}
}